S011000053696D6F6E47616D652E7372656393
S1130000383B0020D1020000CD020000CD020000E8
S113001000000000000000000000000000000000DC
S1130020000000000000000000000000CD020000FD
S11300300000000000000000CD020000910A000052
S1130040CD020000CD020000CD020000CD02000070
S1130050CD020000CD020000CD020000CD02000060
S1130060CD020000CD020000CD020000CD02000050
S1130070CD020000950C0000CD020000CD0200006E
S1130080CD020000CD0200008D020000CD02000070
S1130090CD0200000000000000000000CD020000BE
S11300A0CD020000CD020000CD020000CD02000010
S11300B00000000010B5064C2378002B07D1054B37
S11300C0002B02D0044800E000BF0123237010BDC0
S11300D0D01A00200000000060150000084B10B585
S11300E0002B03D00749084800E000BF0748036815
S11300F0002B00D110BD064B002BFBD09847F9E72D
S113010000000000D41A00206015000060150000F3
S1130110000000000F4B4820195C022211431954BF
S11301208130195C114319548538195C11431954F1
S11301301030195C0A431A54802252005A608021FC
S113014089007C3A9950743A5A60802252035A606A
S11301507047C04600440041084B1B6ADB050AD5C2
S1130160064AA023D0588005C30F106AC006C00FEA
S11301704000C018704701204042FBE700440041A2
S113018080B2034B18831A00D37BDB09FCD1704780
S1130190002C0042044A138802210B431380D37BB2
S11301A0DB09FCD17047C046002C0042044A138886
S11301B002218B431380D37BDB09FCD17047C046FB
S11301C0002C004210B5274B8020C001986080218C
S11301D09960802212029A60586159615A61224AD8
S11301E0116A80231B010B431362204A204B5A805F
S11301F01A0053785BB2002BFBDB1E4B98471E4B57
S11302001A880C218A431A801A8854318A4320217F
S11302100A431A805A8907208243022002435A81E2
S11302205A890A435A815A7B01210A435A731A0094
S1130230537B5BB2002BFBDB104B8022D20280216C
S11302405A500131FF315A50C420800019580C4CC7
S1130250214019501A60FF200A4B98470A4B9847CF
S113026010BDC04600440041000400401B40000093
S1130270000C0040AD010000002C004200E100E051
S1130280FFFF00FF810100009501000010B50B4B3A
S11302909847002809D10A4B80229A615A61094A79
S11302A0937B01210B43937310BD054B8022D20134
S11302B09A615A61044B9847EDE7C0467D0C0000F3
S11302C000440041002C0042890C0000FEE70000BD
S11302D0F8B52A4A2A4B9A4211D01A00294B9A425D
S11302E00DD2294A03339B1A9B0801339B00002239
S11302F0234822498C58845004329A42FAD1234A22
S1130300234B9A420AD2D34321495B1803218B43DE
S113031004339B18002102C29342FCD11D4AFF21E1
S11303201D4B8B439360FD3990235B001B4AD150D6
S11303301B4AD3780325AB4302242343D370D378D9
S11303400C27BB4308263343D370164B987B3022CB
S11303509043202210439873997BB9433143997396
S11303609A7BAA4322439A730F4A536880210B4312
S113037053600E4B98470E4B9847FEE760150000FC
S113038000000020D01A002004000020D01A002011
S1130390381B002000ED00E0000000000070004168
S11303A0005000410048004100400041B9110000E4
S11303B0BD060000574A53681E218B431C390B436A
S11303C05360554A936906310B439361534B544A26
S11303D09A829A8A02210A439A8219000222CB68DD
S11303E01A42FCD001224F4B1A701A0001211378D3
S11303F00B4203D053785BB2002BF8DB0122494B4C
S11304009A601A0053785BB2002BFBDB464A454BDB
S11304105A601A0053785BB2002BFBDB8222D201B4
S1130420404B5A801A0053785BB2002BFBDB3B4AEB
S1130430938C80218B43938411001022CB681A4241
S1130440FCD03A4A354BDA6219001022CB681A42C2
S1130450FCD0324A938C36490B439384110010220A
S1130460CB681A42FCD02D4A938C02210B4393840F
S11304707E314020D3681942FCD0D3681842F9D0A9
S113048026491022CB681A42FCD00022254B9A60E0
S11304901A0053785BB2002BFBDB264A214B5A60CF
S11304A01A0053785BB2002BFBDB1C4B1A6A2249FF
S11304B01140802252000A431A621A6A80218A4338
S11304C01A62184B03229A601C4A5A601A00537825
S11304D05BB2002BFBDB104B00221A725A729A7229
S11304E0DA72174A174B1A60174B1968174B1868BA
S11304F0C00E8B065B0F1B024901FF220A40024318
S11305001343134A1385034A536880210B435360F2
S11305107047C0460040004100040040000800400D
S11305200C060000000C004001050100B805FF7D29
S1130530040A000000070300FFFCFFFF030601009C
S1130540006CDC0200000020246080002060800039
S1130550004000420B4A136A02210B4313620A4A09
S11305600A4B5A801A0053785BB2002BFBDB084B12
S11305701A7801210A431A70892252001A81054A05
S11305805A6070470004004007400000000C00401F
S11305900004004200002506C3000148C01870474B
S11305A00400002030B502001C3204380F255388A3
S11305B01B110B7013881B122B40548824012343F6
S11305C04B7013888B70043A03318242EFD130BDF3
S11305D0431E5800C01840000901014BC152704726
S11305E0181B002003004000C01802384000090115
S11305F0014BC1527047C046181B00200300400045
S1130600C018013840000901014BC1527047C0466F
S1130610181B002070B5040016001D00054B9847F8
S113062031002000044B984729002000034B9847D1
S113063070BDC046D1050000E5050000FD050000C1
S113064070B5050000230122002101201A4CA047A7
S11306500023002201210220A047012300220021BF
S11306600320A0470023012201210420A047012DDB
S11306700DD0002D04D0022D10D0032D15D070BD47
S11306800023FA22002101200B4CA047F7E70023A6
S11306900022FA210220084CA047F0E7FA230022A6
S11306A000210320044CA047E9E70023FA22FA21A1
S11306B00420014CA047E2E715060000F0B5DE4631
S11306C057464E464546E0B595B0CF4B9847CF4A7E
S11306D0CF4B5360CF48036A1B021B0AC021090693
S11306E00B4303620025956007231360CA4B9847A8
S11306F0CA4B9847CA4B9847CA4B9847CA4B984726
S1130700CA4B9847CA4B98470020CA4CA0470120BF
S1130710A0470220A0470B900320A0470095DC23AC
S1130720B02200210020C44CA047C44B9847C44BBE
S11307301900203100221A8002339942FBD1002390
S1130740012200210120BF4CA047002300220121E7
S11307500220A0470123002200210320A0470023F8
S1130760012201210420A0470EA9B548B64B9847A1
S11307700EA8B64B9847B64B0D930D9B5A1E0D927F
S1130780002BFAD1B34B984700260196B24D009541
S113079014230A220B9F3900B048B14CA04701969C
S11307A0009528230A223900AE48A04701960095F7
S11307B03C230A223900AC48A04701239B4600236E
S11307C00A93002300240693079402930394089346
S11307D00994FF250024A54B9846A54B9A460595F8
S11307E016E0022414E00023994611E00023994600
S11307F09B4603240CE0142A16D99E4B9847C3B297
S11308000593029603970FE0059C63425C41E4B2B2
S113081043461E685F6832003B0002980399121A2F
S11308208B41002BE9D1E6D0052CF1D8A300524628
S1130830D3589F46059B002BD3D1069A079B921948
S11308407B4106920793E3E700230093DC33B02255
S113085000210020784CA047012399460324D7E7C0
S11308604B46002B2CD132003B0008980999121AF0
S11308708B41002B04D1B6D1FA239B009A42B2D902
S11308805B46042B2FD87C4B9847C217920F8018D5
S113089003231840821AD3B20A931800774B98475F
S11308A00EA96748684B98470EA8684B98475B4663
S11308B00133DBB29B460896099700239946A7E7C4
S11308C0644B984700230193634B00933C230A2213
S11308D00B996B48624DA84706980799694B98474E
S11308E0564B9847BFE75B4B9847089609970123F7
S11308F0994600239B4604248AE74B46002B15D1D6
S1130900059D28005D4B98470EA94D484E4B9847CE
S11309100EA84E4B98475B46042B00D966E70A9B0A
S11309209D4220D000239946052471E7494B9847FE
S113093000230193484B00933C230A220B9952480D
S1130940474EB0473D4B9847069807994D4B9847FB
S1130950494B9847C217920F801803231840821AF4
S1130960D3B20A93CCE75B460133DBB29B46424BDE
S11309709847C217920F8018032303409B1ADBB2D7
S11309800A930023994643E74B46002B1ED10023CC
S11309900022FA2101202B4EB04700230022FA2125
S11309A00220B04700230022FA210320B04700238D
S11309B00022FA210420B0470EA92148224B98476F
S11309C00EA8224B98470023994621E7214B9847CC
S11309D000230193204B00933C230A220B992B48BC
S11309E01F4EB047154B984706980799254B9847D3
S11309F0214B9847C217920F801803231840821A7C
S1130A00D3B20A93C3E7C046B503000010E000E088
S1130A107FBB000000ED00E0F50C0000C501000004
S1130A20F50D0000550500001501000095010000BA
S1130A308D0D0000990500007D0F0000450C00009D
S1130A40181B002015060000A5050000BD0B0000C2
S1130A5060EA0000350C0000FFFF0000CC14000029
S1130A6011100000E814000000150000F01A002026
S1130A70B41400005901000099120000410600005E
S1130A800C15000085120000181500002815000040
S1130A9030B505490A684B680124002512196B41D9
S1130AA00A604B6030BDC046F01A002070B5394B67
S1130AB0B520195C0F26B143032529431954CA22D2
S1130AC09C5C01210C439C5436241A5DB2432A4396
S1130AD01A5516341A5D0A431A551C5C0F2222401B
S1130AE0302422431A5416301A5C0A431A542A4AF0
S1130AF0136802218B431360D3699B07FCD4274AF4
S1130B00136A40210B431362254A264B5A801A006C
S1130B1053785BB2002BFBDB1F4A136801210B43A4
S1130B2013601368DB07FCD4D369DB07F9D41A4BD1
S1130B301A681D490A401A601A681C49114080222B
S1130B4052020A431A601A6819490A401A601A685C
S1130B5018490A401A601A6817490A401A601A6844
S1130B601C218A4310390A431A6059688022920270
S1130B700A435A6017221A731A6802210A431A6038
S1130B801A00D3699B07FCD4034A937D02210B43CB
S1130B90937570BD004400410018004200040040F9
S1130BA018400000000C0040FFFFCFFFFFFFFCFFD8
S1130BB0FFFFFFBFFFFFFFDFFFFFFFEF70B5040084
S1130BC00E4B1B78002B03D10C4B5B78002B00D011
S1130BD070BD0A4D281D18222100094B9847297F12
S1130BE04B1C2B77074A936A615C5B0A5B020B43DD
S1130BF09362936A01232B70EAE7C046F81A002037
S1130C000112000000180042094A137EDB07FCD5DC
S1130C10074A936AC005C00D5B0A5B0203439362F3
S1130C20137E9B07FCD5137EDB07F9D57047C046BE
S1130C3000180042024A137D02210B4313757047CA
S1130C400018004210B50A4A937D02210B439375A4
S1130C50084B8022920180215A500131FF315A50B1
S1130C60C32080001958044C214019501A6010BD4B
S1130C700018004200E100E0FF00FFFF014B58783C
S1130C80C0B27047F81A00200022014B5A70704716
S1130C90F81A00200E4B1B7F172B0BD90C4B00228C
S1130CA01A771A7001325A700A4A137E02210B43D2
S1130CB013767047064A591C1177D21805498B6A76
S1130CC012795B0A5B0213438B628B6AECE7C046C2
S1130CD0F81A002000180042054A536C1B0E1B062C
S1130CE064210B4353649368DB05FCD47047C0460E
S1130CF00020004210B51E4A116A80235B000B439A
S1130D0013621C4A1C4B5A801A0053785BB2002BA6
S1130D10FBDB1A4A136802218B43136018494F20E6
S1130D200B5C012423430B5418380C5C0F23234021
S1130D30502423430B54D36B07218B4306390B43B5
S1130D40D36393685B06FCD40C4C6369032293431E
S1130D50013A134363610B4B984723680A4A1340D3
S1130D602360226A80235B041343236210BDC046C0
S1130D70000400401A400000000C00400020004223
S1130D8000440041D90C0000FFF8FFFF024A136839
S1130D9002210B431360704700200042F8B507009E
S1130DA0064D8026B6036E617020054CA0470020D6
S1130DB0A047FF203840A047AE61F8BD0044004181
S1130DC0090C0000F8B50F00074B9847074D802623
S1130DD0B6036E617220064CA047380AA047FF2074
S1130DE03840A047AE61F8BD9D0D000000440041AD
S1130DF0090C000010B586B0414B8021C9029960EE
S1130E00802292039A6099619A613E4B98473E4BC7
S1130E100193019B5A1E0192002BFAD18022D20227
S1130E20374B5A61394B0293029B5A1E0292002B94
S1130E30FAD18022D202324B9A61354B0393039B41
S1130E405A1E0392002BFAD100211020314B9847EF
S1130E50314B0493049B5A1E0492002BFAD10F21A8
S1130E60F8202C4CA0471921F920A0472B4B0593BF
S1130E70059B5A1E0592002BFAD129490120254CC5
S1130E80A04700210220A047982149000320A04741
S1130E9000210520A04728211820A0472021202038
S1130EA0A04700212120A04700213520A047DB21B5
S1130EB03620A0471B493720A047CC218901702048
S1130EC0A047E42189017120A047E0218901722013
S1130ED0A04715497320A04714497420A04714491A
S1130EE07520A04713497620A04713497720A047CF
S1130EF012497820A04701210520A04706B010BD63
S1130F0000440041AD0A0000C0C62D00C0D4010059
S1130F1060EA0000C50D0000C027090000EE0200D1
S1130F201C880000CF200000242900001C2600009B
S1130F30253100001C2700002A3500001E2A00006D
S1130F40F0B5C64600B5140098462030C5B28EB23E
S1130F5031003520084FB84741460139711889B22C
S1130F603620B847611E49192D02294389B237201A
S1130F70B84704BC9046F0BDC50D0000F0B5CE46A0
S1130F8000B582B0070015001C0008AB1B88994609
S1130F9023000191194EB047390020312020184F09
S1130FA0B8476B4699882120B8472220154B9847AB
S1130FB080229203144B5A617220144B98476C435D
S1130FC0261E0FDD4B461B0A019300240F4FFF25FD
S1130FD04B461D400198B8472800B8470134A4B2D5
S1130FE0B442F7DB80229203074B9A610021002070
S1130FF0034B984702B004BC9146F0BD410F00007A
S1131000C50D00009D0D000000440041090C0000C6
S1131010F0B5DE4657464E464546E0B58BB00890DF
S11310200D0014001E0014AB1F8815AB1A8807921C
S11310305B4B984781B206916B782A784243D2B2CF
S1131040019631002000574EB04720342100202063
S1131050554CA0476B4699882120A0472220534B2A
S1131060984780229203524B5A617220514B984701
S11310706B78002B00D183E0079A130A03933B0A91
S113108002930023049306994B1E9BB201330993E8
S1131090B94664E06A680B00203B69784B430499C5
S11310A08C4663445B009BB2D75CD3185B789B4649
S11310B04AE003983F4B9B4698470198D847013430
S11310C0E4B22B78A34228D9072C0FD807231B1B83
S11310D03A001A411300DB07EBD50298354B9B46C7
S11310E0984740464B461840D847E8E70F231B1B58
S11310F032001A411300DB0708D502982D4B9B469A
S1131100984740464B461840D847D8E70398294BA0
S11311109B4698470198D847D1E7B34601239C469C
S1131120E244059B534512D0534619782A780C2A79
S1131130B0D020396B784B4304998C4663449BB2FE
S11311406968CF5C002AE9D000245E46BCE7049BB2
S113115001339BB21A0004936B78934210D9069B17
S1131160002BF4D0089A13009246099A94466344DB
S11311700593FF239846079B424613400193D3E708
S1131180802292030A4B9A6100210020064B984763
S11311900BB03CBC90469946A246AB46F0BDC04657
S11311A0CD120000410F0000C50D00009D0D000090
S11311B000440041090C000070B50D4E0D4D002493
S11311C0AD1BAD1005D0A300F35801349847A542D8
S11311D0F9D100F0B3F9084E084D0024AD1BAD1051
S11311E005D0A300F35801349847A542F9D170BD46
S11311F0481500004815000048150000501500006F
S1131200F0B505000F2A2FD90B0003439B0734D1F7
S113121016000C000300103E350901352D01451957
S113122027681F6067685F60A7689F60E76810347D
S1131230DF6010339D42F3D10F239E43103685198E
S113124089191340032B1AD91E1F0023B408013433
S1131250A400CF58EF500433A342FAD10324A64389
S1131260331D2240C918ED18002A05D00023CC5C98
S1131270EC5401339342FAD1F0BD0500F6E71A00AD
S1131280F2E7C0460022034B1B68A83318605A607B
S11312907047C046A416002010B5094B094A1C68C3
S11312A0094BA8342068616800F0DAF801220023B1
S11312B080185941206061604800400810BDC04654
S11312C0A41600202D7F954C2DF4515810B583079A
S11312D025D00378002B24D00300032102E01A78E0
S11312E0002A1AD001330B42F9D119680E4A0F4C67
S11312F08A188A43224206D1043319680A4A8A1892
S11313008A432242F8D01A001B78002B03D0013202
S113131011780029FBD1101A10BD181AFCE703003C
S1131320E3E70020F8E7C046FFFEFEFE80808080F1
S1131330034B10B5002B02D0024800F005F810BD95
S1131340000000005913000010B501000023002222
S1131350002000F01BF810BD70B5094B094CE41ACD
S1131360A41009D0084AA518AD00ED182B68013C5B
S11313709847043D002CF9D100F0EAF870BDC0464E
S11313805C15000060150000FFFFFF3FF8B5DE4666
S11313909B46314B45461C68A4234E4657465B008A
S11313A0E0B50500E0580E00904600284BD0436895
S11313B01F2B0DDC5C1C002D21D102339B004460EB
S11313C01E5000203CBC90469946A246AB46F8BD50
S11313D0224B002B3CD0C820400000E000BF002876
S11313E036D0A42200235200A15843600160A050CB
S11313F040328350043283500124002DDDD09A0002
S113140091468144424688214F467A50C422520074
S11314109046804442468739994012688A460A4376
S11314209446424661461160842249465F46520012
S11314308F50022DC1D1020055468D32FF32116802
S11314400D431560B9E720004D30FF30E050AEE7A2
S113145001204042B6E7C0463815000000000000F5
S1131460F0B5CE46474615042D0C2E0080B5070472
S1131470140C3F0C9946030C7E435D43674363435E
S11314807F19340CE4199C46A54203D980235B02DE
S11314909846C4444B46514343433604360C250C0A
S11314A024046544A4195918491920000CBC904619
S11314B09946F0BD08080000340800004808000000
S11314C060080000FA0800008809000057656C6392
S11314D06F6D6520746F207468652053696D6F6E3D
S11314E02047616D6500000047616D65207072657D
S11314F0737320627574746F6E20533020746F00A0
S1131500626567696E2E2E2E000000004D792074EE
S113151075726E2E2E2E0000596F757220747572BE
S11315206E2E2E2E00000000594F55204C4F53456F
S1131530205355434B412100A8160020F8B5C0465E
S1131540F8BC08BC9E46704731130000DD00000063
S1131550F8B5C046F8BC08BC9E467047B50000000C
S113156040420F0006080000A413002008080000F1
S1131570A4100020080C0000240C00200C10000013
S11315802400002000000000000000000000000013
S11315900000000000000000000000000000000047
S11315A000000000060006000F000F000F000F00EF
S11315B00F000600060006000000000006000600FA
S11315C000000000000000001980198019801980B3
S11315D00000000000000000000000000000000007
S11315E00000000000000660066006603FF00CC0CA
S11315F00CC0198019807FC0330033003300000011
S113160000000000060006001F803FC036003600C0
S11316103F801FC006C006C03FC01F8006000600F2
S1131620000000000000000000103830387038E07E
S113163001C0038007000E001C0038E070E060E089
S113164000000000000007000D80198019801B00B5
S11316500E001E003E00336033C031803BC01E606C
S1131660000000000E000E000E00060006000C0034
S11316700000000000000000000000000000000066
S113168000000000038006000E000C001C001C007B
S11316901C001C001C001C000C000E000600038033
S11316A0000000001C000600070003000380038004
S11316B003800380038003800300070006001C00EE
S11316C00000000000000000000036C036C01F808B
S11316D00F003FC00F001F8036C036C0000000005E
S11316E000000000000000000000000006000600EA
S11316F006003FC03FC006000600060000000000D0
S113170000000000000000000000000000000000D5
S1131710000000000000000000000E000E000E009B
S113172006000C00000000000000000000000000A3
S113173000003FC03FC000000000000000000000A7
S11317400000000000000000000000000000000095
S1131750000000000000000000000E000E000E005B
S113176000000000000000100030007000E001C024
S1131770038007000E001C003800700060000000A9
S1131780000000000F803FE03060607060F061B0E6
S1131790633066306C307830703030603FE00F80FA
S11317A000000000030007001F001F0003000300E7
S11317B00300030003000300030003001FE01FE015
S11317C0000000001FC03FE070706030607000E0F7
S11317D001C0038007000E001C0038007FF07FF07A
S11317E0000000001FC03FE07070603000300070E7
S11317F00FE00FC000600030603070703FE01FC029
S11318000000000001C003C007C00EC01CC038C0E7
S113181070C060C07FF07FF000C000C000C000C096
S1131820000000007FF07FF06000600060007FC077
S11318303FE0007000300030603070703FE01FC047
S11318400000000003C007C00E001C003800300078
S11318507FC07FE070706030603070703FE01FC008
S1131860000000007FF07FF00060006000C000C056
S11318700180018003000300060006000C000C0038
S1131880000000000F801FC038E03060306038E096
S11318901FC03FE070706030603070703FE01FC068
S11318A0000000001FC03FE0707060306030707056
S11318B03FF01FF0006000E001C003801F001E0025
S11318C00000000000000000000000000E000E00F8
S11318D00E000000000000000E000E000E000000CC
S11318E00000000000000000000000000E000E00D8
S11318F00E000000000000000E000E000E000600A6
S113190006000C0000C001C0038007000E001C008C
S1131910380038001C000E000700038001C000C01E
S113192000000000000000000000000000003FE094
S11319303FE0000000003FE03FE000000000000046
S113194000000000300038001C000E000700038077
S113195001C001C0038007000E001C0038003000E5
S1131960000000001F803FC070E0606060E001C0C4
S113197003800700060006000600000006000600BB
S1131980000000001FC03FE0306067B06FB06DB072
S11319906DB06DB06DB06FE067C070003FC00FC038
S11319A000000000060006000F000F000F00198061
S11319B01980198030C03FC03FC0606060606060C3
S11319C0000000007F007F8061C060C060C061C013
S11319D07F807FC060E06060606060E07FC07F8087
S11319E0000000000F801FC038E03060600060001D
S11319F06000600060006000306038E01FC00F804D
S1131A00000000007F007F8061C060C06060606093
S1131A10606060606060606060C061C07F807F0003
S1131A20000000007FE07FE0600060006000600074
S1131A307F807F8060006000600060007FE07FE066
S1131A40000000007FE07FE0600060006000600054
S1131A507F807F8060006000600060006000600044
S1131A60000000000FC01FE038603000600060001C
S1131A7063E063E060606060306038601FE00FE046
S1131A8000000000606060606060606060606060D2
S1131A907FE07FE060606060606060606060606004
S1131AA0000000001F801F800600060006000600DC
S1131AB00600060006000600060006001F801F80C0
S1131AC000000000006000600060006000600060D2
S1131AD00060006000606060606070C03FC01F8094
S1131AE000000000606060E061C0638067006E0019
S1131AF07C007C006E006700638061C060E0606011
S1131B000000000060006000600060006000600091
S1131B106000600060006000600060007FE07FE0C3
S1131B2000000000606070E070E079E079E06F60D0
S1131B306F60666066606060606060606060606086
S1131B400000000060607060706078606C606C60C1
S1131B50666066606360636061E060E060E06060EE
S1131B60000000000F001F8039C030C0606060605A
S1131B70606060606060606030C039C01F800F00CA
S1131B80000000007F807FC060E060606060606093
S1131B9060E07FC07F8060006000600060006000E3
S1131BA0000000000F001F8039C030C0606060601A
S1131BB0606060606060636033C039C01FE00F60C4
S1131BC0000000007F807FC060E060606060606053
S1131BD060E07FC07F806700638061C060E0606018
S1131BE0000000001F803FC070E060606000700073
S1131BF03F801FC000E00060606070E03FC01F8055
S1131C00000000003FC03FC00600060006000600BA
S1131C100600060006000600060006000600060090
S1131C200000000060606060606060606060606030
S1131C306060606060606060606030C03FC01F8052
S1131C400000000060606060606030C030C030C080
S1131C501980198019800F000F000F00060006007C
S1131C6000000000606060606060606060606060F0
S1131C706060666066606F6079E070E070E060608C
S1131C80000000006060606030C030C019800F0048
S1131C90060006000F00198030C030C0606060602C
S1131CA0000000006060606030C030C0198019809E
S1131CB00F000F00060006000600060006000600DE
S1131CC0000000007FE07FE000C000C0018003004E
S1131CD0060006000C001800300030007FE07FE0B2
S1131CE0000000001F801F80180018001800180052
S1131CF01800180018001800180018001F801F8012
S1131D0000000000000040006000700038001C006B
S1131D100E000700038001C000E0007000300000E6
S1131D20000000001F801F8001800180018001806D
S1131D300180018001800180018001801F801F805B
S1131D4000000000020007000F801DC038E0707022
S1131D5060300000000000000000000000000000EF
S1131D60000000000000000000000000000000006F
S1131D70000000000000000000000000000000005F
S1131D807FF07FF000000700070007000600060050
S1131D90030000000000000000000000000000003C
S1131DA000000000000000000000000000001FC050
S1131DB03FE000601FE03FE0606060607FE03FE084
S1131DC000000000600060006000600060006F8040
S1131DD07FC070E060606060606060E07FC07F80B2
S1131DE000000000000000000000000000001F8050
S1131DF03FC0706060006000600070603FC01F8082
S1131E0000000000006000600060006000601F606F
S1131E103FE071E060606060606070603FE01FE020
S1131E2000000000000000000000000000001F800F
S1131E303FC070607FE07FC0600070003FC01F80C3
S1131E400000000007800F801C0018001800180014
S1131E507F007F00180018001800180018001800F0
S1131E6000000000000000000000000000001FE06F
S1131E703FE07060606070E03FE01F60006000E081
S1131E803FC03F80600060006000600060006F0041
S1131E907F8071C060C060C060C060C060C060C04E
S1131EA000000000000000000600060000000E0014
S1131EB00E00060006000600060006001F801F80B4
S1131EC00000000000000000018001800000038089
S1131ED003800180018001800180018001801980DC
S1131EE01F800F003000300030003000300031809F
S1131EF0338037003E003E003700338031C030C0AD
S1131F00000000000E000E00060006000600060099
S1131F100600060006000600060006001F801F805B
S1131F2000000000000000000000000000005980D4
S1131F307FC07FE06660666066606660666066605B
S1131F4000000000000000000000000000003F80CE
S1131F503FC030E03060306030603060306030600E
S1131F6000000000000000000000000000001F80CE
S1131F703FC070E060606060606070E03FC01F80E0
S1131F8000000000000000000000000000007F804E
S1131F907FC060E06060606070E07FC06F80600060
S1131FA060006000000000000000000000001FE06E
S1131FB03FE070606060606070E03FE01F60006060
S1131FC0006000600000000000000000000037C056
S1131FD03FE0386030003000300030003000300026
S1131FE000000000000000000000000000003F00AE
S1131FF07F8060007F003F80018001807F803F0000
S113200000000000000018001800180018007F00ED
S11320107F00180018001800180018001F800F8097
S113202000000000000000000000000000006060EC
S11320306060606060606060606070E03FE01F60EE
S113204000000000000000000000000000006060CC
S1132050606030C030C0198019800F000F00060086
S113206000000000000000000000000000006660A6
S113207066606660666066606F603FC039C01080ED
S1132080000000000000000000000000000060C02C
S113209071C03B801F000E001F003B8071C060C0F8
S11320A0000000000000000000000000000030C03C
S11320B030C0198019800F000F00060006000C00C4
S11320C00C001800000000000000000000007FC0A9
S11320D07F80030006000C00180030007FC07FC022
S11320E00000000003C007C00E000C000C000C0030
S11320F01C0038001C000C000C000C000E0007C073
S113210003C00000060006000600060006000600E4
S1132110060006000600060006000600060006008B
S1132120000000003C003E00070003000300030021
S1132130038001C0038003000300030007003E0086
S11321403C000000000000001C6036C063800000FA
S1132150000000000000000000000000000000007B
S113216000000000000000000000000006000F0056
S1132170198030C0606060607FE07FE00000000094
S1132180000000000000000000000000000000004B
S113219000183C3C3C181800181800003636361459
S11321A00000000000000000006C6C6CFE6C6CFE13
S11321B06C6C000018187CC6C0783C06C67C1818E5
S11321C000000062660C183066C6000000386C38E7
S11321D03876F6CECC7600000C0C0C18000000000B
S11321E000000000000C183030303030180C0000B3
S11321F00030180C0C0C0C0C183000000000006CA3
S113220038FE386C0000000000000018187E181812
S113221000000000000000000000000C0C0C18007E
S11322200000000000FE00000000000000000000AC
S11322300000000018180000000002060C183060AE
S1132240C0800000007CC6CEDEF6E6C6C67C000078
S11322500018781818181818187E0000007CC6C6D4
S11322600C183060C6FE0000007CC606063C06065C
S1132270C67C0000000C1C3C6CCCFE0C0C0C00005A
S113228000FEC0C0C0FC0606C67C0000007CC6C0C0
S1132290C0FCC6C6C67C000000FEC60C1830303038
S11322A030300000007CC6C6C67CC6C6C67C0000B2
S11322B0007CC6C6C67E0606C67C00000000000C74
S11322C00C00000C0C0000000000000C0C00000CC2
S11322D00C0C1800000C183060C06030180C0000A2
S11322E000000000FE00FE00000000000060301846
S11322F00C060C1830600000007CC6C60C181800D0
S113230018180000007CC6C6DEDEDEDCC07E0000DD
S113231000386CC6C6C6FEC6C6C6000000FC6666AB
S1132320667C666666FC0000003C66C0C0C0C0C037
S1132330663C000000F86C66666666666CF8000031
S113234000FE6660607C606066FE000000FE666001
S1132350607C606060F00000007CC6C6C0C0CEC671
S1132360C67C000000C6C6C6C6FEC6C6C6C60000F9
S1132370003C181818181818183C0000003C1818CD
S1132380181818D8D870000000C6CCD8F0F0D8CCF3
S1132390C6C6000000F060606060606266FE000017
S11323A000C6C6EEFED6D6D6C6C6000000C6C6E631
S11323B0E6F6DECECEC60000007CC6C6C6C6C6C6DD
S11323C0C67C000000FC6666667C606060F000000D
S11323D0007CC6C6C6C6C6C6D67C060000FC6666B9
S11323E0667C786C66E60000007CC6C060380C062B
S11323F0C67C0000007E5A1818181818183C0000F3
S113240000C6C6C6C6C6C6C6C67C000000C6C6C6CA
S1132410C6C6C66C3810000000C6C6D6D6D6FEEEB8
S1132420C6C6000000C6C66C3838386CC6C6000084
S113243000666666663C1818183C000000FEC68CF0
S1132440183060C2C6FE0000007C6060606060609E
S1132450607C0000000080C06030180C06020000A0
S1132460007C0C0C0C0C0C0C0C7C000010386CC6A2
S11324700000000000000000000000000000000058
S1132480000000FF1818180C0000000000000000F5
S113249000000000780C7CCCDC76000000E060607A
S11324A07C66666666FC0000000000007CC6C0C056
S11324B0C67C0000001C0C0C7CCCCCCCCC7E000078
S11324C0000000007CC6FEC0C67C0000001C363044
S11324D030FC3030307800000000000076CEC6C6F4
S11324E07E06C67C00E060606C76666666E6000088
S11324F00018180038181818183C0000000C0C00BC
S11325001C0C0C0C0CCCCC7800E06060666C786C15
S113251066E600000038181818181818183C00004F
S1132520000000006CFED6D6C6C600000000000005
S1132530DC66666666660000000000007CC6C6C6EF
S1132540C67C000000000000DC6666667C6060F00B
S11325500000000076CCCCCC7C0C0C1E00000000EB
S1132560DC66606060F00000000000007CC6701C47
S1132570C67C000000303030FC303030361C0000A7
S113258000000000CCCCCCCCCC76000000000000D5
S1132590C6C6C66C3810000000000000C6C6D6D6F9
S11325A0FE6C000000000000C66C38386CC60000E9
S11325B000000000C6C6C6CE7606C67C0000000039
S11325C0FE8C183062FE0000000E181818701818DF
S11325D0180E000000181818180018181818000011
S11325E000701818180E1818187000000076DC0017
S11325F000000000000000000000001038386C6C7F
S1132600FE00000000000000000000003030303008
S1132610300030006C6C6C00000000006C6CFE6CD0
S1132620FE6C6C00307CC0780CF8300000C6CC180E
S11326303066C600386C3876DCCC76006060C0004A
S11326400000000018306060603018006030181816
S11326501830600000663CFF3C660000003030FC2F
S1132660303000000000000000303060000000FC4A
S1132670000000000000000000303000040C18309E
S113268060C080007CC6CEDEF6E67C003070303060
S11326903030FC0078CC0C3860CCFC0078CC0C38A2
S11326A00CCC78001C3C6CCCFE0C1E00FCC0F80C5E
S11326B00CCC78003860C0F8CCCC7800FCCC0C187A
S11326C03030300078CCCC78CCCC780078CCCC7C52
S11326D00C18700000303000003030000030300042
S11326E000303060183060C0603018000000FC001A
S11326F000FC00006030180C1830600078CC0C1816
S1132700300030007CC6DEDEDEC078003078CCCC11
S1132710FCCCCC00FC66667C6666FC003C66C0C0F3
S1132720C0663C00F86C6666666CF8007E60607893
S113273060607E007E606078606060003C66C0C05F
S1132740CE663E00CCCCCCFCCCCCCC007830303047
S1132750303078001E0C0C0CCCCC7800E6666C781B
S11327606C66E6006060606060607E00C6EEFEFE3F
S1132770D6C6C600C6E6F6DECEC6C600386CC6C6E9
S1132780C66C3800FC66667C6060F00078CCCCCC0B
S1132790DC781C00FC66667C6C66E60078CCE0782D
S11327A01CCC7800FC30303030303000CCCCCCCC79
S11327B0CCCCFC00CCCCCCCCCC783000C6C6C6D6B5
S11327C0FEEEC600C6C66C38386CC600CCCCCC78DD
S11327D030307800FE060C183060FE0078606060CF
S11327E060607800C06030180C0602007818181871
S11327F01818780010386CC60000000000000000B3
S1132800000000FF30301800000000000000780CC9
S11328107CCC7600E060607C6666DC00000078CCEE
S1132820C0CC78001C0C0C7CCCCC7600000078CC9E
S1132830FCC07800386C60F06060F000000076CC7A
S1132840CC7C0CF8E0606C766666E6003000703094
S1132850303078000C000C0C0CCCCC78E060666C4A
S1132860786CE60070303030303078000000CCFEF8
S1132870FED6C6000000F8CCCCCCCC00000078CC4E
S1132880CCCC78000000DC66667C60F0000076CC7E
S1132890CC7C0C1E0000DC766660F00000007CC07E
S11328A0780CF80010307C30303418000000CCCCA8
S11328B0CCCC76000000CCCCCC7830000000C6D65E
S11328C0FEFE6C000000C66C386CC6000000CCCC68
S11328D0CC7C0CF80000FC983064FC001C3030E028
S11328E030301C001818180018181800E030301C7C
S11328F03030E00076DC0000000000000066666610
S113290066665C800000000000000000808080801B
S113291080008000D8904800000000000050F8506B
S1132920F85000002078A07028F02000888810203B
S11329304088880040A0A040A89068003010200083
S113294000000000081020202010080080402020F3
S1132950204080000020A87070A82000002020F8EB
S1132960202000000000000000C04080000000F8AB
S1132970000000000000000000C0C0000808102093
S113298040808000708898A8C8887000206020204B
S113299020207000708808106080F800708808702B
S11329A00888700010305090F8101000F880F0087B
S11329B008887000304080F088887000F808102083
S11329C040404000708888708888700070888878DB
S11329D00810600000C0C000C0C0000000C0C000FB
S11329E0C0C0408008102040201008000000F800FB
S11329F0F8000000804020102040800070880810FB
S1132A00200020007088A8A8B08078002050888812
S1132A10F8888800F08888F08888F0003048808042
S1132A2080483000E09088888890E000F88080F04A
S1132A308080F800F88080F080808000708880803A
S1132A4098887000888888F888888800F820202072
S1132A502020F80008080808088870008890A0C0A2
S1132A60A0908800808080808080F80088D8A8A802
S1132A70888888008888C8A898888800708888888A
S1132A8088887000F08888F080808000708888884A
S1132A90A8906800F08888F0A09088007088807002
S1132AA008887000F820202020202000888888884A
S1132AB0888870008888885050202000888888A8DA
S1132AC0A8A8500088885020508888008888502002
S1132AD020202000F80810204080F800F8C0C0C072
S1132AE0C0C0F8008080402010080800F8181818AA
S1132AF01818F800000020508800000000000000B2
S1132B00000000FC102030000000000000007008ED
S1132B10788878008080F0888888F00000007880C9
S1132B208080780008087888888878000000708899
S1132B30F8807800304840F0404040000000708841
S1132B40887808708080F088888888002000602059
S1132B502020700010003010101090608080889049
S1132B606090880060202020202070000000D8A8F9
S1132B70A8A888000000F088888888000000708871
S1132B80888870000000F08888F0808000007888D1
S1132B90887808080000B8C0808080000000788031
S1132BA07008F0004040F040404830000000888841
S1132BB08898680000008888885020000000888871
S1132BC0A8A8D800000088502050880000008888F9
S1132BD0887808700000F8102040F800386060C061
S1132BE0606038002020202020202020E030301891
S1132BF03030E0000068B00000000000FCFCFCFC89
S1132C00FCFCFCFCA8160020000000009419002025
S1132C10FC190020641A00200000000000000000DD
S1132C2000000000000000000000000000000000A0
S1132C300000000000000000000000000000000090
S1132C400000000000000000000000000000000080
S1132C500000000000000000000000000000000070
S1132C600000000000000000000000000000000060
S1132C700000000000000000000000000000000050
S1132C800000000000000000000000000000000040
S1132C900000000000000000000000000000000030
S1132CA00000000000000000000000000000000020
S1132CB001000000000000000E33CDAB34126DE6BD
S1132CC0ECDE05000B000000000000000000000026
S1132CD000000000000000000000000000000000F0
S1132CE000000000000000000000000000000000E0
S1132CF000000000000000000000000000000000D0
S1132D0000000000000000000000000000000000BF
S9030000FC
